:020000040800F2
:10000000100400204D0D0008290D00082B0D0008DC
:100010002D0D00082F0D0008310D00080000000014
:10002000000000000000000000000000330D000888
:10003000350D000800000000370D0008390D0008DC
:100040006D0D0008710D0008750D0008790D000890
:100050007D0D0008810D0008850D0008890D000840
:100060008D0D0008910D0008950D0008990D0008F0
:100070009D0D0008A10D0008A50D0008A90D0008A0
:10008000AD0D0008B10D0008B50D0008B90D000850
:10009000BD0D0008C10D0008C50D0008C90D000800
:1000A000CD0D0008D10D0008D50D0008D90D0008B0
:1000B000DD0D00080000000000000000E10D000858
:1000C000E50D0008E90D0008ED0D0008F10D000830
:1000D000F50D0008F90D0008FD0D0008010E0008DF
:1000E000050E0008090E00080000000000000000D6
:1000F0000000000000000000000000000000000000
:10010000000000000D0E000800000000110E0008A5
:100110000000000000000000150E0008190E000885
:100120001D0E0008210E0008250E0008290E0008EB
:100130002D0E00080000000000000000000000007C
:10014000310E0008350E0008390E000800000000CE
:100150003D0E0008410E0008450E0008490E00083B
:100160004D0E0008510E0008550E0008000000005A
:10017000590E00085D0E000800000000000000009D
:10018000610E0008650E0008690E00082DE9FC47A5
:10019000050066D0DFF8C076DFF8CC66BC68D7F81B
:1001A0000C802878C10604F00C0408F0030848D538
:1001B00024B10C2C08BFB8F1010F2CD1386881078D
:1001C00002D5A86900284CD0396808074EBF3968A5
:1001D00071680909286A01F0F001814206D200F035
:1001E00000FB00283DD100F003FA07E000F000FA20
:1001F00024B9286A00F0F5FA002832D100F0A8FAF4
:10020000BA6800F094FADFF85806006800F040FB86
:10021000010016D0E6E1A86928B3396841F0010170
:10022000396000F057FB81463868810707D400F039
:1002300051FBA0EB09000328F6D30320D2E100F024
:10024000D7F92878C10755D5082C04D00C2C08BF45
:10025000B8F1030F17D1386881034BD568680028BF
:1002600048D10120BEE138684008400000F0D5F9CF
:10027000814638688107E4D500F02CFBA0EB09002B
:100280000328F6D3D9E76868B0F5803F04D1386811
:1002900040F48030386011E0B0F5A02F386806D106
:1002A00040F480203860396841F4803105E020F462
:1002B00080303860396821F480213960686860B125
:1002C00000F008FB81463868810313D400F002FB7C
:1002D000A0EB09006528F6D3AFE700F0FBFA8146F2
:1002E0003868810306D500F0F5FAA0EB090065280F
:1002F000F6D3A2E72878810713D5042C04D00C2C60
:1003000008BFB8F1020F22D13868410502D5E8686C
:100310000028A6D07868296920F0F85040EA0160EA
:1003200078602878010742D56869002870682FD066
:1003300040F00100706000F0CDFA804670688107DF
:1003400035D400F0C7FA00F04FF9F7D375E7E86845
:1003500078B1396841F48071396000F0BBFA8046A9
:1003600038684105D6D400F0B5FA00F03DF9F7D36E
:1003700063E7386820F4807000F04FF980463868F1
:100380004105CED500F0A6FA00F02EF9F7D354E7D8
:1003900040084000706000F09DFA80467068810758
:1003A00005D500F097FA00F01FF9F7D345E7287854
:1003B000410767D5B86DC1004FF000080AD4B86D89
:1003C00040F08050B8654FF00108B86D00F08050E3
:1003D00000900098DFF89494D9F80000C10513D478
:1003E000D9F8000040F48070C9F8000000F072FAFB
:1003F0008246D9F80000C10506D400F06BFAA0EBE4
:100400000A000328F5D318E7A868012804D130684A
:1004100040F00100306010E00528306806D140F05F
:1004200004003060316841F0010105E040084000FF
:100430003060316821F004013160A86841F28939E7
:1004400060B100F047FA82463068810713D400F0AB
:1004500041FAA0EB0A004845F6D3EEE600F03AFA7E
:1004600082463068810706D500F034FAA0EB0A0016
:100470004845F6D3E1E6B8F1000F03D0B86D20F09F
:100480008050B8652878810621D5686A0028B06850
:100490000ED040F00100B06000F01CFA8046B06859
:1004A000810714D400F016FA00F09EF8F7D3C4E6E2
:1004B00040084000B06000F00DFA8046B068810747
:1004C00005D500F007FA00F08FF8F7D3B5E6A86A73
:1004D000002800F0868002286FD1F868EA6A00F0F0
:1004E0000301914201BF00F0700110312A6BB1EBA2
:1004F000021F1DD16A6B00F4FE41B1EB022F02BF57
:1005000000F07841AA6BB1EBC26F11D1EA6B00F435
:10051000C00101F500115208B1EB425F08D1296C0E
:1005200000F0C06000F100704908B0EB416F40D0AE
:100530000C2C43D0386841013FF593AE00F06AF8C7
:1005400004463868810105D500F0C4F9001B032872
:10055000F7D372E6F868DFF81813EA6A0840296BE7
:100560001043491E40EA0110EA6B696B520840EAE9
:100570000120296C521E490840EA4250491E40EAB7
:100580004160A96B40EAC160F860386840F0807053
:100590003860F96841F08071F96000F09BF9044619
:1005A000386881011DD400F095F9001B0328F7D3AA
:1005B00043E63868810114D4E7E70C2C3FF451AED0
:1005C00000F028F804463868810105D500F082F96A
:1005D000001B0328F7D330E6F868DFF898120840CC
:1005E000F8600020BDE8F687A0EB080003287047FC
:1005F000386840F0080038603968286A21F0F00156
:10060000014339607968E86921F47F4141EA0021BA
:1006100079607047386820F08070386000F05AB90F
:100620002DE9F0410400884655D0DFF84C6230686F
:1006300000F00700404502D200F06FF84BD120785F
:10064000DFF81452810706D5A068A96801F0F0010F
:10065000814200F076F82078C1072AD56068032827
:1006600002D129688A0108E0022802D129688A0398
:1006700003E00028296802D18A0702D42BE04A054A
:1006800029D5A968890840EA8100A86000F022F90C
:100690000746A868616800F00C00B0EB810F08D035
:1006A00000F018F9C01B41F289318842F1D30320D0
:1006B00031E02078810706D5A068A96801F0F00133
:1006C000884200F03EF8306800F00700804504D210
:1006D00000F023F801D001201DE02078410705D566
:1006E000AA68E06822F4E0620243AA602178080761
:1006F00006D5A968206921F4605141EAC001A960CA
:1007000000F026F8AA6800F012F8BDE8F04154485D
:10071000006800F0BDB8BDE8F0813168C90848EA5A
:10072000C1013160306800F007004045704753490F
:10073000C2F30312895C494A01F01F01C8401060EE
:10074000704704D2A96821F0F0010843A8607047FF
:1007500070B5414A4A4B9068D6680025002110F0D8
:100760000C0006F00306474C03D00C2812D1012ED2
:100770001AD115682E0704D43A4D2E68C6F3032506
:1007800002E01568C5F303153F4E56F8255048B9E9
:10079000294624E0042808BF214620D008281ED17D
:1007A00019461CE00C281AD1D06800F0030002287A
:1007B00003D0032808BF1D4600E02546D168D06855
:1007C000D268C0F306204543C1F30210C2F3416171
:1007D000401C491CB5FBF0F04900B0FBF1F10846A4
:1007E00070BD7CB5294E054630680024C10002D595
:1007F00000F076F80EE0306840F0805030603168EC
:1008000001F080510091009800F06AF8316821F001
:1008100080513160B0F5007F04D1802D0CD9A12D1D
:1008200009D304E0802D88BF032405D801D1022418
:1008300002E0702D00D101240F480168C90844EA84
:10084000C1010160006800F00700A04201D0012052
:1008500076BD002076BD0000001002400C00002094
:1008600008000020941002409010024000700040E8
:100870008C809D01FCFFEEFE00200240540C00081D
:1008800000127A000024F400080C000858100240FE
:1008900070B50E4E044630780025A0B14FF47A7141
:1008A0000B4AB1FBF0F11068B0FBF1F000F08EF8EC
:1008B00048B9102C07D2002221464FF0FF3000F03B
:1008C00067F8B46000E00125284670BD00000020F4
:1008D0000C00002001484068704700BF0000002065
:1008E000DFF86C00006800F4C060704710B5DFF8F6
:1008F0006010B0F5007F086800F4C0601DD1B0F54D
:10090000007F22D00A68DFF84C30012060F34A22D1
:100910000A6032201C68DFF840204443B4FBF2F048
:10092000401C00E0401E4A69530501D50028F9D15A
:100930004869410509D5032010BDB0F5806F04D08A
:100940000A68022060F34A220A60002010BD0000FD
:10095000007000400C00002040420F00090102001E
:1009600002D4234881547047224B02F00F021A44EC
:1009700002F8041C7047204B19684FF6FF02000272
:10098000114000F4E06008431C49084318607047B8
:1009900070B5194B1C68C4F302230124C3F1070589
:1009A000052D2EBF0F2504FA05F56D1E1E1D072E01
:1009B00034BF0023DB1E2940994004FA03F3BDE84D
:1009C00070405B1E1A401143C8E70000401EB0F1A2
:1009D000807F01D30120704709490A4A48600023FB
:1009E000F02010708B600720086000207047000026
:1009F00000E400E018ED00E00CED00E00000FA0576
:100A000010E000E023ED00E080B500F051F800F0C8
:100A100003F800F071F8FEE780B596B0442200219B
:100A200005A800F08BF814220021684600F086F833
:100A30004FF40070FFF75AFF08B100F037F800F0EC
:100A400087F81948016821F0180101601422059205
:100A50000121602207910B910D92002101220C913E
:100A600010921192022128220F9112920721022244
:100A700013911492159205A8FFF788FB08B100F0B6
:100A800015F80F2003210090019100220292039299
:100A9000049204216846FFF7C3FD08B100F006F890
:100AA00000F05EF817B000BD9010024072B6FEE78D
:100AB000032010B5FFF75FFF0F20FFF7E9FE0024CA
:100AC000002814BF012400F053F8204610BD0EE0AA
:100AD00002684368024408305FEAC37C44BF4B4469
:100AE0005B1E52F804CB43F804CB091FF9D150F830
:100AF000041B0029ECD170470F4881B0016841F018
:100B000004010160026802F0040200920099026888
:100B100042F080020260036803F0800300930099B2
:100B2000026842F001020260006800F001000090DB
:100B3000009801B0704700BF4C10024010B5044649
:100B400010460A460146204600F02AF8204610BD0D
:100B50000248016841F480710160704700700040F4
:100B60000248016841F00401016070470010024032
:100B70000A4881B0816841F001018160816801F01B
:100B8000010100910099026842F080520260006801
:100B900000F080500090009801B07047581002405B
:100BA00062F30F2262F31F42401810F0030308D0D3
:100BB000C91A1FD3DB0748BF00F8012D28BF20F852
:100BC000022D130030B414461546103928BF20E911
:100BD0003C00FAD8490728BF20E90C0048BF40F87C
:100BE000042D890028BF20F8022D48BF00F8012DF0
:100BF00030BC7047C91818BF00F8012DCB0728BFBB
:100C000000F8012D70470000A0860100400D030090
:100C1000801A060000350C0040420F0080841E0040
:100C200000093D0000127A000024F40000366E0135
:100C30000048E801006CDC0204494FF000600860E5
:100C40000348026842F470020260704708ED00E059
:100C500088ED00E000000000000000000102030435
:100C60000607080910B5074979441831064C7C4439
:100C7000163404E00A68081D114488470146A14261
:100C8000F8D110BD2C0000003C0000004EF6885149
:100C9000CEF20001086840F470000860BFF34F8F87
:100CA000BFF36F8F4FF00170E1EE100A7047000044
:100CB0001FFEFFFF10000000A40000000000002045
:100CC0000000000000F00DF8002801D0FFF7CAFF77
:100CD000AFF300800020AFF30080FFF795FE00F037
:100CE00002F80120704700F001B8000007463846BE
:100CF00000F002F8FBE7000080B5AFF30080024A85
:100D000011001820ABBEFBE7260002000548014693
:100D100003B4684680F30988AFF30080FFF7B6FF9D
:100D2000FFF7D0FFA5EDF5FEFEE7FEE7FEE7FEE7E5
:100D3000FEE770477047704700F000B8024841680E
:100D400002788A18426070470000002001488047FE
:100D500001480047390C00080D0D00080100000093
:100D6000000000001000000000093D00FFF7FEBF7A
:100D7000FFF7FEBFFFF7FEBFFFF7FEBFFFF7FEBFA7
:100D8000FFF7FEBFFFF7FEBFFFF7FEBFFFF7FEBF97
:100D9000FFF7FEBFFFF7FEBFFFF7FEBFFFF7FEBF87
:100DA000FFF7FEBFFFF7FEBFFFF7FEBFFFF7FEBF77
:100DB000FFF7FEBFFFF7FEBFFFF7FEBFFFF7FEBF67
:100DC000FFF7FEBFFFF7FEBFFFF7FEBFFFF7FEBF57
:100DD000FFF7FEBFFFF7FEBFFFF7FEBFFFF7FEBF47
:100DE000FFF7FEBFFFF7FEBFFFF7FEBFFFF7FEBF37
:100DF000FFF7FEBFFFF7FEBFFFF7FEBFFFF7FEBF27
:100E0000FFF7FEBFFFF7FEBFFFF7FEBFFFF7FEBF16
:100E1000FFF7FEBFFFF7FEBFFFF7FEBFFFF7FEBF06
:100E2000FFF7FEBFFFF7FEBFFFF7FEBFFFF7FEBFF6
:100E3000FFF7FEBFFFF7FEBFFFF7FEBFFFF7FEBFE6
:100E4000FFF7FEBFFFF7FEBFFFF7FEBFFFF7FEBFD6
:100E5000FFF7FEBFFFF7FEBFFFF7FEBFFFF7FEBFC6
:0C0E6000FFF7FEBFFFF7FEBFFFF7FEBF6D
:0400000508000D0DD5
:00000001FF
